{
  "contractName": "MonthlyContract",
  "abi": [
    {
      "inputs": [
        {
          "internalType": "uint256",
          "name": "_totalAmout",
          "type": "uint256"
        },
        {
          "internalType": "uint256",
          "name": "_timeGiven",
          "type": "uint256"
        }
      ],
      "payable": false,
      "stateMutability": "nonpayable",
      "type": "constructor"
    },
    {
      "constant": true,
      "inputs": [],
      "name": "amountLeft",
      "outputs": [
        {
          "internalType": "uint256",
          "name": "",
          "type": "uint256"
        }
      ],
      "payable": false,
      "stateMutability": "view",
      "type": "function"
    },
    {
      "constant": true,
      "inputs": [],
      "name": "buyer",
      "outputs": [
        {
          "internalType": "address payable",
          "name": "",
          "type": "address"
        }
      ],
      "payable": false,
      "stateMutability": "view",
      "type": "function"
    },
    {
      "constant": true,
      "inputs": [],
      "name": "initialAmount",
      "outputs": [
        {
          "internalType": "uint256",
          "name": "",
          "type": "uint256"
        }
      ],
      "payable": false,
      "stateMutability": "view",
      "type": "function"
    },
    {
      "constant": true,
      "inputs": [],
      "name": "monthlyPayment",
      "outputs": [
        {
          "internalType": "uint256",
          "name": "",
          "type": "uint256"
        }
      ],
      "payable": false,
      "stateMutability": "view",
      "type": "function"
    },
    {
      "constant": true,
      "inputs": [],
      "name": "months",
      "outputs": [
        {
          "internalType": "uint256",
          "name": "",
          "type": "uint256"
        }
      ],
      "payable": false,
      "stateMutability": "view",
      "type": "function"
    },
    {
      "constant": true,
      "inputs": [],
      "name": "seller",
      "outputs": [
        {
          "internalType": "address payable",
          "name": "",
          "type": "address"
        }
      ],
      "payable": false,
      "stateMutability": "view",
      "type": "function"
    },
    {
      "constant": true,
      "inputs": [],
      "name": "timeGiven",
      "outputs": [
        {
          "internalType": "uint256",
          "name": "",
          "type": "uint256"
        }
      ],
      "payable": false,
      "stateMutability": "view",
      "type": "function"
    },
    {
      "constant": true,
      "inputs": [],
      "name": "totalAmout",
      "outputs": [
        {
          "internalType": "uint256",
          "name": "",
          "type": "uint256"
        }
      ],
      "payable": false,
      "stateMutability": "view",
      "type": "function"
    },
    {
      "constant": false,
      "inputs": [],
      "name": "intialPay",
      "outputs": [],
      "payable": true,
      "stateMutability": "payable",
      "type": "function"
    }
  ],
  "bytecode": "0x608060405234801561001057600080fd5b506040516104253803806104258339818101604052604081101561003357600080fd5b8101908080519060200190929190805190602001909291905050508060048190555062278d00810242016002819055508160008190555033600560006101000a81548173ffffffffffffffffffffffffffffffffffffffff021916908373ffffffffffffffffffffffffffffffffffffffff1602179055506000546007819055508082816100bd57fe5b046003819055505050610350806100d56000396000f3fe6080604052600436106100865760003560e01c8063d3aa277811610059578063d3aa27781461016e578063dfeb302214610199578063e011ac87146101c4578063f75dbeef146101ef578063fc1ed4371461021a57610086565b806308551a531461008b57806370e9c3ac146100e25780637150d8ae146100ec578063aeef8f3614610143575b600080fd5b34801561009757600080fd5b506100a0610245565b604051808273ffffffffffffffffffffffffffffffffffffffff1673ffffffffffffffffffffffffffffffffffffffff16815260200191505060405180910390f35b6100ea61026b565b005b3480156100f857600080fd5b506101016102d1565b604051808273ffffffffffffffffffffffffffffffffffffffff1673ffffffffffffffffffffffffffffffffffffffff16815260200191505060405180910390f35b34801561014f57600080fd5b506101586102f7565b6040518082815260200191505060405180910390f35b34801561017a57600080fd5b506101836102fd565b6040518082815260200191505060405180910390f35b3480156101a557600080fd5b506101ae610303565b6040518082815260200191505060405180910390f35b3480156101d057600080fd5b506101d9610309565b6040518082815260200191505060405180910390f35b3480156101fb57600080fd5b5061020461030f565b6040518082815260200191505060405180910390f35b34801561022657600080fd5b5061022f610315565b6040518082815260200191505060405180910390f35b600560009054906101000a900473ffffffffffffffffffffffffffffffffffffffff1681565b60035434101561027a57600080fd5b33600660006101000a81548173ffffffffffffffffffffffffffffffffffffffff021916908373ffffffffffffffffffffffffffffffffffffffff1602179055503460018190555060015460005403600781905550565b600660009054906101000a900473ffffffffffffffffffffffffffffffffffffffff1681565b60045481565b60025481565b60005481565b60075481565b60035481565b6001548156fea265627a7a72315820f48c09316634d682cb4de86cc7d62ace7510abae9e18fdc3186f9fa6156e5a1e64736f6c63430005100032",
  "source": "pragma solidity >=0.5.0 <0.7.0;\n\ncontract MonthlyContract {\n    //add state where you can't put money when someone else pays to contract\n    // enum State { Created, Locked, Release }\n    // State public state;\n\n    uint256 public totalAmout;\n    uint256 public initialAmount;\n    uint256 public timeGiven;\n    uint256 public monthlyPayment;\n    uint256 public months;\n    address payable public seller;\n    address payable public buyer;\n\n    uint256 public amountLeft;\n\n    //timegiven is is months. 2592000 seconds is in 1 month.\n    constructor(uint256 _totalAmout, uint256 _timeGiven) public {\n        //how many months you have to pay it in\n        months = _timeGiven;\n        timeGiven = block.timestamp + (_timeGiven * 2592000);\n        totalAmout = _totalAmout;\n        seller = msg.sender;\n        amountLeft = totalAmout;\n        //how many months you have to pay it for\n        monthlyPayment = _totalAmout / _timeGiven;\n    }\n\n    function intialPay() public payable {\n        require(msg.value >= monthlyPayment);\n        buyer = msg.sender;\n        initialAmount = msg.value;\n        amountLeft = totalAmout - initialAmount;\n    }\n\n    //neeeds to add condition where money isn't payed in x date,\n    //the transaction is no longer valid\n}\n",
  "sourcePath": "/mnt/c/Users/taehun lim/blockchain/hackathon/contracts/MonthlyContract.sol",
  "compiler": {
    "name": "solc",
    "version": "0.5.16+commit.9c3226ce.Emscripten.clang"
  },
  "schemaVersion": "3.2.5",
  "updatedAt": "2020-10-22T00:53:17.648Z",
  "networkType": "ethereum",
  "devdoc": {
    "methods": {}
  },
  "userdoc": {
    "methods": {}
  }
}