{
  "contractName": "SimpleContract",
  "abi": [
    {
      "inputs": [
        {
          "internalType": "uint256",
          "name": "_totalAmout",
          "type": "uint256"
        },
        {
          "internalType": "uint256",
          "name": "_timeGiven",
          "type": "uint256"
        }
      ],
      "payable": false,
      "stateMutability": "nonpayable",
      "type": "constructor"
    },
    {
      "constant": true,
      "inputs": [],
      "name": "amount",
      "outputs": [
        {
          "internalType": "uint256",
          "name": "",
          "type": "uint256"
        }
      ],
      "payable": false,
      "stateMutability": "view",
      "type": "function"
    },
    {
      "constant": true,
      "inputs": [],
      "name": "amountLeft",
      "outputs": [
        {
          "internalType": "uint256",
          "name": "",
          "type": "uint256"
        }
      ],
      "payable": false,
      "stateMutability": "view",
      "type": "function"
    },
    {
      "constant": true,
      "inputs": [],
      "name": "buyer",
      "outputs": [
        {
          "internalType": "address payable",
          "name": "",
          "type": "address"
        }
      ],
      "payable": false,
      "stateMutability": "view",
      "type": "function"
    },
    {
      "constant": true,
      "inputs": [],
      "name": "initialAmount",
      "outputs": [
        {
          "internalType": "uint256",
          "name": "",
          "type": "uint256"
        }
      ],
      "payable": false,
      "stateMutability": "view",
      "type": "function"
    },
    {
      "constant": true,
      "inputs": [],
      "name": "monthlyPayment",
      "outputs": [
        {
          "internalType": "uint256",
          "name": "",
          "type": "uint256"
        }
      ],
      "payable": false,
      "stateMutability": "view",
      "type": "function"
    },
    {
      "constant": true,
      "inputs": [],
      "name": "seller",
      "outputs": [
        {
          "internalType": "address payable",
          "name": "",
          "type": "address"
        }
      ],
      "payable": false,
      "stateMutability": "view",
      "type": "function"
    },
    {
      "constant": true,
      "inputs": [],
      "name": "timeGiven",
      "outputs": [
        {
          "internalType": "uint256",
          "name": "",
          "type": "uint256"
        }
      ],
      "payable": false,
      "stateMutability": "view",
      "type": "function"
    },
    {
      "constant": true,
      "inputs": [],
      "name": "totalAmout",
      "outputs": [
        {
          "internalType": "uint256",
          "name": "",
          "type": "uint256"
        }
      ],
      "payable": false,
      "stateMutability": "view",
      "type": "function"
    },
    {
      "constant": false,
      "inputs": [],
      "name": "intialPay",
      "outputs": [],
      "payable": true,
      "stateMutability": "payable",
      "type": "function"
    },
    {
      "constant": false,
      "inputs": [],
      "name": "pay",
      "outputs": [],
      "payable": true,
      "stateMutability": "payable",
      "type": "function"
    }
  ],
  "bytecode": "0x608060405234801561001057600080fd5b506040516104a33803806104a38339818101604052604081101561003357600080fd5b81019080805190602001909291908051906020019092919050505062278d00810242016002819055508160008190555033600560006101000a81548173ffffffffffffffffffffffffffffffffffffffff021916908373ffffffffffffffffffffffffffffffffffffffff1602179055506000546007819055508082816100b657fe5b0460038190555050506103d5806100ce6000396000f3fe6080604052600436106100915760003560e01c8063d3aa277811610059578063d3aa277814610183578063dfeb3022146101ae578063e011ac87146101d9578063f75dbeef14610204578063fc1ed4371461022f57610091565b806308551a53146100965780631b9265b8146100ed57806370e9c3ac146100f75780637150d8ae14610101578063aa8c217c14610158575b600080fd5b3480156100a257600080fd5b506100ab61025a565b604051808273ffffffffffffffffffffffffffffffffffffffff1673ffffffffffffffffffffffffffffffffffffffff16815260200191505060405180910390f35b6100f5610280565b005b6100ff6102f0565b005b34801561010d57600080fd5b50610116610356565b604051808273ffffffffffffffffffffffffffffffffffffffff1673ffffffffffffffffffffffffffffffffffffffff16815260200191505060405180910390f35b34801561016457600080fd5b5061016d61037c565b6040518082815260200191505060405180910390f35b34801561018f57600080fd5b50610198610382565b6040518082815260200191505060405180910390f35b3480156101ba57600080fd5b506101c3610388565b6040518082815260200191505060405180910390f35b3480156101e557600080fd5b506101ee61038e565b6040518082815260200191505060405180910390f35b34801561021057600080fd5b50610219610394565b6040518082815260200191505060405180910390f35b34801561023b57600080fd5b5061024461039a565b6040518082815260200191505060405180910390f35b600560009054906101000a900473ffffffffffffffffffffffffffffffffffffffff1681565b600660009054906101000a900473ffffffffffffffffffffffffffffffffffffffff1673ffffffffffffffffffffffffffffffffffffffff163373ffffffffffffffffffffffffffffffffffffffff16146102da57600080fd5b3460048190555060045460075403600781905550565b6003543410156102ff57600080fd5b33600660006101000a81548173ffffffffffffffffffffffffffffffffffffffff021916908373ffffffffffffffffffffffffffffffffffffffff1602179055503460018190555060015460005403600781905550565b600660009054906101000a900473ffffffffffffffffffffffffffffffffffffffff1681565b60045481565b60025481565b60005481565b60075481565b60035481565b6001548156fea265627a7a72315820ed5469b325ee07940dae2e1c92cb8761dee9f79039ab0eae8ab8f45fca3be20a64736f6c63430005100032",
  "source": "pragma solidity >=0.5.0 <0.6.0;\n\ncontract SimpleContract {\n    //add state where you can't put money when someone else pays to contract\n    // enum State { Created, Locked, Release }\n    // State public state;\n\n    uint256 public totalAmout;\n    uint256 public initialAmount;\n    uint256 public timeGiven;\n    uint256 public monthlyPayment;\n    uint256 public amount;\n    address payable public seller;\n    address payable public buyer;\n\n    uint256 public amountLeft;\n\n    //timegiven is is months. 2592000 seconds is in 1 month.\n    constructor(uint256 _totalAmout, uint256 _timeGiven) public {\n        timeGiven = block.timestamp + (_timeGiven * 2592000);\n        totalAmout = _totalAmout;\n        seller = msg.sender;\n        amountLeft = totalAmout;\n        monthlyPayment = _totalAmout / _timeGiven;\n    }\n\n    function intialPay() public payable {\n        require(msg.value >= monthlyPayment);\n        buyer = msg.sender;\n        initialAmount = msg.value;\n        amountLeft = totalAmout - initialAmount;\n    }\n\n    function pay() public payable {\n        require(msg.sender == buyer);\n        amount = msg.value;\n        amountLeft = amountLeft - amount;\n    }\n\n    //neeeds to add condition where money isn't payed in x date,\n    //the transaction is no longer valid\n}\n",
  "sourcePath": "/mnt/c/Users/taehun lim/blockchain/hackathon/contracts/MonthlyContract.sol",
  "compiler": {
    "name": "solc",
    "version": "0.5.16+commit.9c3226ce.Emscripten.clang"
  },
  "schemaVersion": "3.2.5",
  "updatedAt": "2020-10-22T20:10:39.154Z",
  "devdoc": {
    "methods": {}
  },
  "userdoc": {
    "methods": {}
  }
}